{
  "contractName": "SimpleCoin",
  "abi": [
    {
      "inputs": [],
      "stateMutability": "nonpayable",
      "type": "constructor"
    },
    {
      "anonymous": false,
      "inputs": [
        {
          "indexed": false,
          "internalType": "address",
          "name": "from",
          "type": "address"
        },
        {
          "indexed": false,
          "internalType": "address",
          "name": "to",
          "type": "address"
        },
        {
          "indexed": false,
          "internalType": "uint256",
          "name": "amount",
          "type": "uint256"
        }
      ],
      "name": "Sent",
      "type": "event"
    },
    {
      "inputs": [
        {
          "internalType": "address",
          "name": "",
          "type": "address"
        }
      ],
      "name": "balances",
      "outputs": [
        {
          "internalType": "uint256",
          "name": "",
          "type": "uint256"
        }
      ],
      "stateMutability": "view",
      "type": "function",
      "constant": true
    },
    {
      "inputs": [],
      "name": "minter",
      "outputs": [
        {
          "internalType": "address",
          "name": "",
          "type": "address"
        }
      ],
      "stateMutability": "view",
      "type": "function",
      "constant": true
    },
    {
      "inputs": [
        {
          "internalType": "address",
          "name": "receiver",
          "type": "address"
        },
        {
          "internalType": "uint256",
          "name": "amount",
          "type": "uint256"
        }
      ],
      "name": "mint",
      "outputs": [],
      "stateMutability": "nonpayable",
      "type": "function"
    },
    {
      "inputs": [
        {
          "internalType": "address",
          "name": "receiver",
          "type": "address"
        },
        {
          "internalType": "uint256",
          "name": "amount",
          "type": "uint256"
        }
      ],
      "name": "transfer",
      "outputs": [],
      "stateMutability": "nonpayable",
      "type": "function"
    }
  ],
  "bytecode": "0x608060405234801561001057600080fd5b50336000806101000a81548173ffffffffffffffffffffffffffffffffffffffff021916908373ffffffffffffffffffffffffffffffffffffffff16021790555061057c806100606000396000f3fe608060405234801561001057600080fd5b506004361061004c5760003560e01c8063075461721461005157806327e235e31461006f57806340c10f191461009f578063a9059cbb146100bb575b600080fd5b6100596100d7565b60405161006691906103b1565b60405180910390f35b61008960048036038101906100849190610326565b6100fb565b6040516100969190610403565b60405180910390f35b6100b960048036038101906100b49190610353565b610113565b005b6100d560048036038101906100d09190610353565b6101c5565b005b60008054906101000a900473ffffffffffffffffffffffffffffffffffffffff1681565b60016020528060005260406000206000915090505481565b60008054906101000a900473ffffffffffffffffffffffffffffffffffffffff1673ffffffffffffffffffffffffffffffffffffffff163373ffffffffffffffffffffffffffffffffffffffff161461016b57600080fd5b80600160008473ffffffffffffffffffffffffffffffffffffffff1673ffffffffffffffffffffffffffffffffffffffff16815260200190815260200160002060008282546101ba919061041e565b925050819055505050565b80600160003373ffffffffffffffffffffffffffffffffffffffff1673ffffffffffffffffffffffffffffffffffffffff16815260200190815260200160002054101561021157600080fd5b80600160003373ffffffffffffffffffffffffffffffffffffffff1673ffffffffffffffffffffffffffffffffffffffff16815260200190815260200160002060008282546102609190610474565b9250508190555080600160008473ffffffffffffffffffffffffffffffffffffffff1673ffffffffffffffffffffffffffffffffffffffff16815260200190815260200160002060008282546102b6919061041e565b925050819055507f3990db2d31862302a685e8086b5755072a6e2b5b780af1ee81ece35ee3cd33453383836040516102f0939291906103cc565b60405180910390a15050565b60008135905061030b81610518565b92915050565b6000813590506103208161052f565b92915050565b60006020828403121561033c5761033b610513565b5b600061034a848285016102fc565b91505092915050565b6000806040838503121561036a57610369610513565b5b6000610378858286016102fc565b925050602061038985828601610311565b9150509250929050565b61039c816104a8565b82525050565b6103ab816104da565b82525050565b60006020820190506103c66000830184610393565b92915050565b60006060820190506103e16000830186610393565b6103ee6020830185610393565b6103fb60408301846103a2565b949350505050565b600060208201905061041860008301846103a2565b92915050565b6000610429826104da565b9150610434836104da565b9250827fffffffffffffffffffffffffffffffffffffffffffffffffffffffffffffffff03821115610469576104686104e4565b5b828201905092915050565b600061047f826104da565b915061048a836104da565b92508282101561049d5761049c6104e4565b5b828203905092915050565b60006104b3826104ba565b9050919050565b600073ffffffffffffffffffffffffffffffffffffffff82169050919050565b6000819050919050565b7f4e487b7100000000000000000000000000000000000000000000000000000000600052601160045260246000fd5b600080fd5b610521816104a8565b811461052c57600080fd5b50565b610538816104da565b811461054357600080fd5b5056fea26469706673582212200f1fb38726caec770181af08139027f4fa2c17fe902c72923cf8cbf1a288367964736f6c63430008070033",
  "immutableReferences": {},
  "source": "// SPDX-License-Identifier: MIT\npragma solidity ^0.8.7;\n\ncontract SimpleCoin {\n    // The keyword \"public\" makes those variables\n    // readable from outside.\n    address public minter;\n    mapping(address => uint256) public balances;\n\n    // Events allow light clients to react on\n    // changes efficiently.\n    event Sent(address from, address to, uint256 amount);\n\n    // This is the constructor whose code is\n    // run only when the contract is created.\n    constructor() {\n        minter = msg.sender;\n    }\n\n    function mint(address receiver, uint256 amount) public {\n        if (msg.sender != minter) revert();\n        balances[receiver] += amount;\n    }\n\n    function transfer(address receiver, uint256 amount) public {\n        if (balances[msg.sender] < amount) revert();\n        balances[msg.sender] -= amount;\n        balances[receiver] += amount;\n        emit Sent(msg.sender, receiver, amount);\n    }\n}\n",
  "sourcePath": "/Users/loi/OneDrive/Blockchain/blorkdir/coinx/contracts/SimpleCoin.sol",
  "compiler": {
    "name": "solc",
    "version": "0.8.7+commit.e28d00a7.Emscripten.clang"
  },
  "schemaVersion": "3.4.2",
  "updatedAt": "2021-09-03T02:53:20.494Z",
  "networkType": "ethereum",
  "devdoc": {
    "kind": "dev",
    "methods": {},
    "version": 1
  },
  "userdoc": {
    "kind": "user",
    "methods": {},
    "version": 1
  }
}