{
  "contractName": "SimpleToken",
  "abi": [
    {
      "inputs": [],
      "stateMutability": "nonpayable",
      "type": "constructor"
    },
    {
      "anonymous": false,
      "inputs": [
        {
          "indexed": false,
          "internalType": "address",
          "name": "from",
          "type": "address"
        },
        {
          "indexed": false,
          "internalType": "address",
          "name": "to",
          "type": "address"
        },
        {
          "indexed": false,
          "internalType": "string",
          "name": "content",
          "type": "string"
        }
      ],
      "name": "Sent",
      "type": "event"
    },
    {
      "inputs": [
        {
          "internalType": "uint256",
          "name": "",
          "type": "uint256"
        }
      ],
      "name": "creations",
      "outputs": [
        {
          "internalType": "string",
          "name": "",
          "type": "string"
        }
      ],
      "stateMutability": "view",
      "type": "function"
    },
    {
      "inputs": [
        {
          "internalType": "string",
          "name": "",
          "type": "string"
        }
      ],
      "name": "exists",
      "outputs": [
        {
          "internalType": "bool",
          "name": "",
          "type": "bool"
        }
      ],
      "stateMutability": "view",
      "type": "function"
    },
    {
      "inputs": [],
      "name": "minter",
      "outputs": [
        {
          "internalType": "address",
          "name": "",
          "type": "address"
        }
      ],
      "stateMutability": "view",
      "type": "function"
    },
    {
      "inputs": [
        {
          "internalType": "string",
          "name": "",
          "type": "string"
        }
      ],
      "name": "ownership",
      "outputs": [
        {
          "internalType": "address",
          "name": "",
          "type": "address"
        }
      ],
      "stateMutability": "view",
      "type": "function"
    },
    {
      "inputs": [
        {
          "internalType": "address",
          "name": "receiver",
          "type": "address"
        },
        {
          "internalType": "string",
          "name": "content",
          "type": "string"
        }
      ],
      "name": "mint",
      "outputs": [],
      "stateMutability": "nonpayable",
      "type": "function"
    },
    {
      "inputs": [
        {
          "internalType": "address",
          "name": "receiver",
          "type": "address"
        },
        {
          "internalType": "string",
          "name": "content",
          "type": "string"
        }
      ],
      "name": "transfer",
      "outputs": [],
      "stateMutability": "nonpayable",
      "type": "function"
    }
  ],
  "bytecode": "0x608060405234801561001057600080fd5b50336000806101000a81548173ffffffffffffffffffffffffffffffffffffffff021916908373ffffffffffffffffffffffffffffffffffffffff160217905550610ae2806100606000396000f3fe608060405234801561001057600080fd5b50600436106100625760003560e01c806307546172146100675780630988664914610085578063261a323e146100a15780636cbb6bc0146100d15780638557a53114610101578063d0def52114610131575b600080fd5b61006f61014d565b60405161007c91906107fb565b60405180910390f35b61009f600480360381019061009a919061068a565b610171565b005b6100bb60048036038101906100b691906106e6565b6102c0565b6040516100c89190610854565b60405180910390f35b6100eb60048036038101906100e691906106e6565b6102f6565b6040516100f891906107fb565b60405180910390f35b61011b6004803603810190610116919061072f565b61033f565b604051610128919061086f565b60405180910390f35b61014b6004803603810190610146919061068a565b6103eb565b005b60008054906101000a900473ffffffffffffffffffffffffffffffffffffffff1681565b6000151560028260405161018591906107e4565b908152602001604051809103902060009054906101000a900460ff16151514156101ae57600080fd5b3373ffffffffffffffffffffffffffffffffffffffff166003826040516101d591906107e4565b908152602001604051809103902060009054906101000a900473ffffffffffffffffffffffffffffffffffffffff1673ffffffffffffffffffffffffffffffffffffffff161461022457600080fd5b8160038260405161023591906107e4565b908152602001604051809103902060006101000a81548173ffffffffffffffffffffffffffffffffffffffff021916908373ffffffffffffffffffffffffffffffffffffffff1602179055507fcf90475cb2ee903c10b68165beed0e4b4c73f29a9d314f30a1dd25d17a259bc83383836040516102b493929190610816565b60405180910390a15050565b6002818051602081018201805184825260208301602085012081835280955050505050506000915054906101000a900460ff1681565b6003818051602081018201805184825260208301602085012081835280955050505050506000915054906101000a900473ffffffffffffffffffffffffffffffffffffffff1681565b6001818154811061034f57600080fd5b90600052602060002001600091509050805461036a90610998565b80601f016020809104026020016040519081016040528092919081815260200182805461039690610998565b80156103e35780601f106103b8576101008083540402835291602001916103e3565b820191906000526020600020905b8154815290600101906020018083116103c657829003601f168201915b505050505081565b60008054906101000a900473ffffffffffffffffffffffffffffffffffffffff1673ffffffffffffffffffffffffffffffffffffffff163373ffffffffffffffffffffffffffffffffffffffff161461044357600080fd5b60028160405161045391906107e4565b908152602001604051809103902060009054906101000a900460ff161561047957600080fd5b6001819080600181540180825580915050600190039060005260206000200160009091909190915090805190602001906104b492919061054d565b5060016002826040516104c791906107e4565b908152602001604051809103902060006101000a81548160ff021916908315150217905550816003826040516104fd91906107e4565b908152602001604051809103902060006101000a81548173ffffffffffffffffffffffffffffffffffffffff021916908373ffffffffffffffffffffffffffffffffffffffff1602179055505050565b82805461055990610998565b90600052602060002090601f01602090048101928261057b57600085556105c2565b82601f1061059457805160ff19168380011785556105c2565b828001600101855582156105c2579182015b828111156105c15782518255916020019190600101906105a6565b5b5090506105cf91906105d3565b5090565b5b808211156105ec5760008160009055506001016105d4565b5090565b60006106036105fe846108b6565b610891565b90508281526020810184848401111561061f5761061e610a5e565b5b61062a848285610956565b509392505050565b60008135905061064181610a7e565b92915050565b600082601f83011261065c5761065b610a59565b5b813561066c8482602086016105f0565b91505092915050565b60008135905061068481610a95565b92915050565b600080604083850312156106a1576106a0610a68565b5b60006106af85828601610632565b925050602083013567ffffffffffffffff8111156106d0576106cf610a63565b5b6106dc85828601610647565b9150509250929050565b6000602082840312156106fc576106fb610a68565b5b600082013567ffffffffffffffff81111561071a57610719610a63565b5b61072684828501610647565b91505092915050565b60006020828403121561074557610744610a68565b5b600061075384828501610675565b91505092915050565b6107658161090e565b82525050565b61077481610920565b82525050565b6000610785826108e7565b61078f81856108f2565b935061079f818560208601610965565b6107a881610a6d565b840191505092915050565b60006107be826108e7565b6107c88185610903565b93506107d8818560208601610965565b80840191505092915050565b60006107f082846107b3565b915081905092915050565b6000602082019050610810600083018461075c565b92915050565b600060608201905061082b600083018661075c565b610838602083018561075c565b818103604083015261084a818461077a565b9050949350505050565b6000602082019050610869600083018461076b565b92915050565b60006020820190508181036000830152610889818461077a565b905092915050565b600061089b6108ac565b90506108a782826109ca565b919050565b6000604051905090565b600067ffffffffffffffff8211156108d1576108d0610a2a565b5b6108da82610a6d565b9050602081019050919050565b600081519050919050565b600082825260208201905092915050565b600081905092915050565b60006109198261092c565b9050919050565b60008115159050919050565b600073ffffffffffffffffffffffffffffffffffffffff82169050919050565b6000819050919050565b82818337600083830152505050565b60005b83811015610983578082015181840152602081019050610968565b83811115610992576000848401525b50505050565b600060028204905060018216806109b057607f821691505b602082108114156109c4576109c36109fb565b5b50919050565b6109d382610a6d565b810181811067ffffffffffffffff821117156109f2576109f1610a2a565b5b80604052505050565b7f4e487b7100000000000000000000000000000000000000000000000000000000600052602260045260246000fd5b7f4e487b7100000000000000000000000000000000000000000000000000000000600052604160045260246000fd5b600080fd5b600080fd5b600080fd5b600080fd5b6000601f19601f8301169050919050565b610a878161090e565b8114610a9257600080fd5b50565b610a9e8161094c565b8114610aa957600080fd5b5056fea2646970667358221220abfbe56f480d69b2125ca814fa3aa51ee64cd126f4915b0a701b850d89d4e38364736f6c63430008070033",
  "immutableReferences": {},
  "source": "// SPDX-License-Identifier: MIT\npragma solidity ^0.8.7;\n\n// Simple NFT\ncontract SimpleToken {\n    // The keyword \"public\" makes those variables\n    // readable from outside.\n    address public minter;\n    // all content that has been minted\n    string[] public creations;\n    // does content exist\n    mapping(string => bool) public exists;\n    // ownership of content\n    mapping(string => address) public ownership;\n\n    // Events allow light clients to react on\n    // changes efficiently.\n    event Sent(address from, address to, string content);\n\n    // This is the constructor whose code is\n    // run only when the contract is created.\n    constructor() {\n        // the creator of this contract on the blockchain is the minter\n        minter = msg.sender;\n    }\n\n    function mint(address receiver, string memory content) public {\n        // only minter can mint new ownerships\n        if (msg.sender != minter) revert();\n        // content can only be minted once to a receiver, it cannot be re-minted\n        if (exists[content]) revert();\n        // push content into existence\n        creations.push(content);\n        exists[content] = true;\n        ownership[content] = receiver;\n    }\n\n    function transfer(address receiver, string memory content) public {\n        // no transfer if content does not exists\n        if (exists[content] == false) revert();\n        // only the content owner can transfer ownership\n        if (ownership[content] != msg.sender) revert();\n        ownership[content] = receiver;\n        emit Sent(msg.sender, receiver, content);\n    }\n}\n",
  "sourcePath": "/Users/loi/OneDrive/Blockchain/blorkdir/coinx/contracts/SimpleToken.sol",
  "compiler": {
    "name": "solc",
    "version": "0.8.7+commit.e28d00a7.Emscripten.clang"
  },
  "schemaVersion": "3.4.2",
  "updatedAt": "2021-09-03T02:35:33.363Z",
  "devdoc": {
    "kind": "dev",
    "methods": {},
    "version": 1
  },
  "userdoc": {
    "kind": "user",
    "methods": {},
    "version": 1
  }
}